20230627-03:08:08.121 RCV-001151:8=FIX.4.2|9=57|35=0|34=1151|49=AUTEXTST|56=TORAUAT|52=20230626-18:08:06|10=077|
20230627-03:09:04.950 SNT-001039:8=FIX.4.2|9=61|35=0|34=1039|49=TORAUAT|52=20230626-18:09:04.949|56=AUTEXTST|10=032|
20230627-03:09:08.362 RCV-001152:8=FIX.4.2|9=57|35=0|34=1152|49=AUTEXTST|56=TORAUAT|52=20230626-18:09:07|10=080|
20230627-03:10:04.950 SNT-001040:8=FIX.4.2|9=61|35=0|34=1040|49=TORAUAT|52=20230626-18:10:04.949|56=AUTEXTST|10=016|
20230627-03:10:08.589 RCV-001153:8=FIX.4.2|9=57|35=0|34=1153|49=AUTEXTST|56=TORAUAT|52=20230626-18:10:07|10=073|
20230627-03:11:04.950 SNT-001041:8=FIX.4.2|9=61|35=0|34=1041|49=TORAUAT|52=20230626-18:11:04.949|56=AUTEXTST|10=018|
20230627-03:11:08.835 RCV-001154:8=FIX.4.2|9=57|35=0|34=1154|49=AUTEXTST|56=TORAUAT|52=20230626-18:11:07|10=075|
20230627-03:11:37.347 SNT-001042:8=FIX.4.2|9=421|35=D|34=1042|49=TORAUAT|52=20230626-18:11:37.347|56=AUTEXTST|115=TESTGROUP|116=rranjan|128=REDITORART|129=ALGO|1=TESTER1|11=V9vqBJtmKycBAAAB|15=USD|21=1|22=5|38=505|40=1|47=A|48=IBM.N|54=1|55=IBM|58=REDI1|59=0|60=20230626-18:11:37|76=SCMS|167=CS|2600=SCMS|2607=Rajnish Ranjan|2610=ALGO|2612=TESTGROUP|7212=N|7213=IA|9301=303|9311=20230626-19:10:58|9315=Y|9316=20230626-20:10:59|9320=0.0|9321=1|9381=1|9384=0.0|14002=TORA|10=106|
20230627-03:11:37.687 RCV-001155:8=FIX.4.2|9=299|35=8|56=TORAUAT|115=REDITORART|128=TESTGROUP|116=ALGO|129=rranjan|34=1155|49=AUTEXTST|52=20230626-18:11:36|37=12538786|11=V9vqBJtmKycBAAAB|76=SCMS|17=9058555|20=0|150=0|39=0|1=TESTER1|55=IBM|54=1|38=505|40=1|15=USD|59=0|32=0|31=0.00000000|151=505|14=0|6=0.00000000|60=20230626-18:11:37|58=New order|10=011|
20230627-03:12:08.709 SNT-001043:8=FIX.4.2|9=442|35=G|34=1043|49=TORAUAT|52=20230626-18:12:08.709|56=AUTEXTST|115=TESTGROUP|116=rranjan|128=REDITORART|129=ALGO|1=TESTER1|11=V9vqBGSZkFkAAXRS|15=USD|21=1|22=5|38=505|40=1|41=V9vqBJtmKycBAAAB|47=A|48=IBM.N|54=1|55=IBM|58=REDI1|59=0|60=20230626-18:12:08|76=SCMS|167=CS|2600=SCMS|2607=Rajnish Ranjan|2610=ALGO|2612=TESTGROUP|7212=Y|7213=NA|9301=303|9311=20230626-19:10:58|9315=N|9316=20230626-20:10:59|9320=0.0|9321=2|9381=2|9384=0.01|14002=TORA|10=147|
20230627-03:12:09.036 RCV-001156:8=FIX.4.2|9=325|35=8|56=TORAUAT|115=REDITORART|128=TESTGROUP|116=ALGO|129=rranjan|34=1156|49=AUTEXTST|52=20230626-18:12:07|37=12538786|11=V9vqBGSZkFkAAXRS|41=V9vqBJtmKycBAAAB|76=SCMS|17=9058556|20=0|150=E|39=E|1=TESTER1|55=IBM|54=1|38=505|40=1|15=USD|59=0|32=0|31=0.00000000|151=505|14=0|6=0.00000000|60=20230626-18:12:08|58=Replace pending|10=112|
20230627-03:12:09.056 RCV-001157:8=FIX.4.2|9=318|35=8|56=TORAUAT|115=REDITORART|128=TESTGROUP|116=ALGO|129=rranjan|34=1157|49=AUTEXTST|52=20230626-18:12:07|37=12538788|11=V9vqBGSZkFkAAXRS|41=V9vqBJtmKycBAAAB|76=SCMS|17=9058557|20=0|150=5|39=5|1=TESTER1|55=IBM|54=1|38=505|40=1|15=USD|59=0|32=0|31=0.00000000|151=505|14=0|6=0.00000000|60=20230626-18:12:08|58=Replaced|10=181|
20230627-03:12:25.669 SNT-001044:8=FIX.4.2|9=415|35=F|34=1044|49=TORAUAT|52=20230626-18:12:25.668|56=AUTEXTST|115=TESTGROUP|116=rranjan|128=REDITORART|129=ALGO|1=TESTER1|11=V9vqBGSZkFkAAXTH|22=5|38=505|41=V9vqBGSZkFkAAXRS|48=IBM.N|54=1|55=IBM|58=REDI1|60=20230626-18:12:25|76=SCMS|167=CS|2600=SCMS|2607=Rajnish Ranjan|2610=ALGO|2612=TESTGROUP|7212=Y|7213=NA|9301=303|9311=20230626-19:10:58|9315=N|9316=20230626-20:10:59|9320=0.0|9321=2|9381=2|9384=0.01|14002=TORA|10=135|
20230627-03:12:26.008 RCV-001158:8=FIX.4.2|9=338|35=8|56=TORAUAT|115=REDITORART|128=TESTGROUP|116=ALGO|129=rranjan|34=1158|49=AUTEXTST|52=20230626-18:12:24|37=12538790|11=V9vqBGSZkFkAAXTH|41=V9vqBGSZkFkAAXRS|76=SCMS|17=9058558|20=0|150=6|39=6|1=TESTER1|55=IBM|48=IBM.N|22=5|54=1|38=505|40=1|15=USD|59=0|32=0|31=0.00000000|151=505|14=0|6=0.00000000|60=20230626-18:12:25|58=Cancel pending|10=159|
20230627-03:12:26.022 RCV-001159:8=FIX.4.2|9=339|35=8|56=TORAUAT|115=REDITORART|128=TESTGROUP|116=ALGO|129=rranjan|34=1159|49=AUTEXTST|52=20230626-18:12:24|37=12538788|11=V9vqBGSZkFkAAXTH|41=V9vqBGSZkFkAAXRS|76=SCMS|17=9058559|20=0|150=4|39=4|1=TESTER1|55=IBM|48=IBM.N|22=5|54=1|38=505|40=1|15=USD|59=0|32=0|31=0.00000000|151=0|14=0|6=0.00000000|60=20230626-18:12:25|58=Cancelled by User|10=037|
20230627-03:13:25.950 SNT-001045:8=FIX.4.2|9=61|35=0|34=1045|49=TORAUAT|52=20230626-18:13:25.949|56=AUTEXTST|10=027|
20230627-03:13:26.340 RCV-001160:8=FIX.4.2|9=57|35=0|34=1160|49=AUTEXTST|56=TORAUAT|52=20230626-18:13:25|10=074|
20230627-03:13:25.950 SNT-001045:8=FIX.4.2|9=61|35=0|34=1046|49=TORAUAT|52=20230626-18:13:25.949|56=AUTEXTST|10=027|
20230627-03:14:28.578 RCV-001162:8=FIX.4.2|9=57|35=0|34=1161|49=AUTEXTST|56=TORAUAT|52=20230626-18:14:27|10=079|
20230627-03:14:28.578 RCV-001162:8=FIX.4.2|9=57|35=0|34=1162|49=AUTEXTST|56=TORAUAT|52=20230626-18:14:27|10=079|
20230627-03:14:28.579 SNT-001047:8=FIX.4.2|9=61|35=0|34=1047|49=TORAUAT|52=20230626-18:14:28.579|56=AUTEXTST|10=032|
20230627-03:14:54.817 SNT-001048:8=FIX.4.2|9=421|35=D|34=1048|49=TORAUAT|52=20230626-18:14:54.817|56=AUTEXTST|115=TESTGROUP|116=rranjan|128=REDITORART|129=ALGO|1=TESTER1|11=V9vqBJtmKmIBAAAB|15=USD|21=1|22=5|38=505|40=1|47=A|48=IBM.N|54=1|55=IBM|58=TORA1|59=0|60=20230626-18:14:54|76=SCMS|167=CS|2600=SCMS|2607=Rajnish Ranjan|2610=ALGO|2612=TESTGROUP|7212=Y|7213=IA|9301=303|9311=20230626-19:14:20|9315=Y|9316=20230626-20:14:19|9320=0.0|9321=1|9381=1|9384=0.0|14002=TORA|10=102|
20230627-03:14:55.142 RCV-001163:8=FIX.4.2|9=299|35=8|56=TORAUAT|115=REDITORART|128=TESTGROUP|116=ALGO|129=rranjan|34=1163|49=AUTEXTST|52=20230626-18:14:53|37=12538792|11=V9vqBJtmKmIBAAAB|76=SCMS|17=9058561|20=0|150=0|39=0|1=TESTER1|55=IBM|54=1|38=505|40=1|15=USD|59=0|32=0|31=0.00000000|151=505|14=0|6=0.00000000|60=20230626-18:14:54|58=New order|10=226|
20230627-03:15:20.649 SNT-001049:8=FIX.4.2|9=442|35=G|34=1049|49=TORAUAT|52=20230626-18:15:20.649|56=AUTEXTST|115=TESTGROUP|116=rranjan|128=REDITORART|129=ALGO|1=TESTER1|11=V9vqBGSZkFkAAXbg|15=USD|21=1|22=5|38=505|40=1|41=V9vqBJtmKmIBAAAB|47=A|48=IBM.N|54=1|55=IBM|58=TORA1|59=0|60=20230626-18:15:20|76=SCMS|167=CS|2600=SCMS|2607=Rajnish Ranjan|2610=ALGO|2612=TESTGROUP|7212=N|7213=NA|9301=303|9311=20230626-19:14:20|9315=N|9316=20230626-20:14:19|9320=0.0|9321=2|9381=2|9384=0.01|14002=TORA|10=148|
20230627-03:15:20.985 RCV-001164:8=FIX.4.2|9=325|35=8|56=TORAUAT|115=REDITORART|128=TESTGROUP|116=ALGO|129=rranjan|34=1164|49=AUTEXTST|52=20230626-18:15:19|37=12538792|11=V9vqBGSZkFkAAXbg|41=V9vqBJtmKmIBAAAB|76=SCMS|17=9058562|20=0|150=E|39=E|1=TESTER1|55=IBM|54=1|38=505|40=1|15=USD|59=0|32=0|31=0.00000000|151=505|14=0|6=0.00000000|60=20230626-18:15:20|58=Replace pending|10=106|
20230627-03:15:21.031 RCV-001165:8=FIX.4.2|9=318|35=8|56=TORAUAT|115=REDITORART|128=TESTGROUP|116=ALGO|129=rranjan|34=1165|49=AUTEXTST|52=20230626-18:15:19|37=12538794|11=V9vqBGSZkFkAAXbg|41=V9vqBJtmKmIBAAAB|76=SCMS|17=9058563|20=0|150=5|39=5|1=TESTER1|55=IBM|54=1|38=505|40=1|15=USD|59=0|32=0|31=0.00000000|151=505|14=0|6=0.00000000|60=20230626-18:15:20|58=Replaced|10=175|
20230627-03:15:22.227 SNT-001050:8=FIX.4.2|9=322|35=D|34=1050|49=TORAUAT|52=20230626-18:15:22.226|56=AUTEXTST|115=TESTGROUP|116=ahasan|128=REDITORART|129=ALGO|1=TESTER1|11=WNGVEJtmKkYCAAAB|15=USD|21=1|22=5|38=1000|40=1|47=A|48=IBM.N|54=1|55=IBM|58=WSA_ATDL|59=0|60=20230626-18:15:22|76=VNDT|167=CS|2600=VNDT|2607=Ahmed Hasan|2610=ALGO|2612=TESTGROUP|6005=SMTA|14002=TORA|10=028|
20230627-03:15:22.558 RCV-001166:8=FIX.4.2|9=291|35=8|56=TORAUAT|115=REDITORART|128=TESTGROUP|129=ahasan|34=1166|49=AUTEXTST|52=20230626-18:15:21|37=12538796|11=WNGVEJtmKkYCAAAB|76=VNDT|17=9058564|20=0|150=0|39=0|1=TESTER1|55=IBM|54=1|38=1000|40=1|15=USD|59=0|32=0|31=0.00000000|151=1000|14=0|6=0.00000000|60=20230626-18:15:22|58=New order|10=149|
20230627-03:15:22.582 RCV-001167:8=FIX.4.2|9=312|35=8|56=TORAUAT|115=REDITORART|128=TESTGROUP|129=ahasan|34=1167|49=AUTEXTST|52=20230626-18:15:21|37=12538796|11=WNGVEJtmKkYCAAAB|76=VNDT|17=9058565|20=0|150=1|39=1|1=TESTER1|55=IBM|54=1|38=1000|40=1|15=USD|59=0|32=10|31=130.40000000|30=PA|151=990|14=10|6=130.40000000|60=20230626-18:15:22|58=Partial Fill|9730=A|10=056|
20230627-03:15:23.857 SNT-001051:8=FIX.4.2|9=415|35=F|34=1051|49=TORAUAT|52=20230626-18:15:23.857|56=AUTEXTST|115=TESTGROUP|116=rranjan|128=REDITORART|129=ALGO|1=TESTER1|11=V9vqBGSZkFkAAXdQ|22=5|38=505|41=V9vqBGSZkFkAAXbg|48=IBM.N|54=1|55=IBM|58=TORA1|60=20230626-18:15:23|76=SCMS|167=CS|2600=SCMS|2607=Rajnish Ranjan|2610=ALGO|2612=TESTGROUP|7212=N|7213=NA|9301=303|9311=20230626-19:14:20|9315=N|9316=20230626-20:14:19|9320=0.0|9321=2|9381=2|9384=0.01|14002=TORA|10=196|
20230627-03:15:24.178 RCV-001168:8=FIX.4.2|9=338|35=8|56=TORAUAT|115=REDITORART|128=TESTGROUP|116=ALGO|129=rranjan|34=1168|49=AUTEXTST|52=20230626-18:15:22|37=12538798|11=V9vqBGSZkFkAAXdQ|41=V9vqBGSZkFkAAXbg|76=SCMS|17=9058566|20=0|150=6|39=6|1=TESTER1|55=IBM|48=IBM.N|22=5|54=1|38=505|40=1|15=USD|59=0|32=0|31=0.00000000|151=505|14=0|6=0.00000000|60=20230626-18:15:24|58=Cancel pending|10=231|
20230627-03:15:24.202 RCV-001169:8=FIX.4.2|9=339|35=8|56=TORAUAT|115=REDITORART|128=TESTGROUP|116=ALGO|129=rranjan|34=1169|49=AUTEXTST|52=20230626-18:15:22|37=12538794|11=V9vqBGSZkFkAAXdQ|41=V9vqBGSZkFkAAXbg|76=SCMS|17=9058567|20=0|150=4|39=4|1=TESTER1|55=IBM|48=IBM.N|22=5|54=1|38=505|40=1|15=USD|59=0|32=0|31=0.00000000|151=0|14=0|6=0.00000000|60=20230626-18:15:24|58=Cancelled by User|10=098|
20230627-03:15:42.567 RCV-001170:8=FIX.4.2|9=312|35=8|56=TORAUAT|115=REDITORART|128=TESTGROUP|129=ahasan|34=1170|49=AUTEXTST|52=20230626-18:15:41|37=12538796|11=WNGVEJtmKkYCAAAB|76=VNDT|17=9058568|20=0|150=1|39=1|1=TESTER1|55=IBM|54=1|38=1000|40=1|15=USD|59=0|32=10|31=130.40000000|30=PA|151=980|14=20|6=130.40000000|60=20230626-18:15:42|58=Partial Fill|9730=A|10=057|
20230627-03:16:02.579 RCV-001171:8=FIX.4.2|9=312|35=8|56=TORAUAT|115=REDITORART|128=TESTGROUP|129=ahasan|34=1171|49=AUTEXTST|52=20230626-18:16:01|37=12538796|11=WNGVEJtmKkYCAAAB|76=VNDT|17=9058569|20=0|150=1|39=1|1=TESTER1|55=IBM|54=1|38=1000|40=1|15=USD|59=0|32=10|31=130.40000000|30=PA|151=970|14=30|6=130.40000000|60=20230626-18:16:02|58=Partial Fill|9730=A|10=053|
20230627-03:16:22.563 RCV-001172:8=FIX.4.2|9=314|35=8|56=TORAUAT|115=REDITORART|128=TESTGROUP|129=ahasan|34=1172|49=AUTEXTST|52=20230626-18:16:21|37=12538796|11=WNGVEJtmKkYCAAAB|76=VNDT|17=9058570|20=0|150=1|39=1|1=TESTER1|55=IBM|54=1|38=1000|40=1|15=USD|59=0|32=250|31=130.40000000|30=PA|151=720|14=280|6=130.40000000|60=20230626-18:16:22|58=Partial Fill|9730=A|10=154|
20230627-03:16:23.950 SNT-001052:8=FIX.4.2|9=61|35=0|34=1052|49=TORAUAT|52=20230626-18:16:23.950|56=AUTEXTST|10=018|
20230627-03:16:39.304 SNT-001053:8=FIX.4.2|9=405|35=D|34=1053|49=TORAUAT|52=20230626-18:16:39.303|56=AUTEXTST|115=TESTGROUP|116=rranjan|128=REDITORART|129=ALGO|1=TESTER1|11=V9vqBJtmKfkBAAAB|15=USD|21=1|22=5|38=505|40=1|47=A|48=IBM.N|54=1|55=IBM|58=REDI2|59=0|60=20230626-18:16:39|76=SCMS|167=CS|2600=SCMS|2607=Rajnish Ranjan|2610=ALGO|2612=TESTGROUP|7212=N|7213=IA|9301=317|9311=20230626-19:16:09|9315=Y|9316=20230626-20:16:09|9320=0.0|9330=1|14002=TORA|10=138|
20230627-03:16:39.639 RCV-001173:8=FIX.4.2|9=299|35=8|56=TORAUAT|115=REDITORART|128=TESTGROUP|116=ALGO|129=rranjan|34=1173|49=AUTEXTST|52=20230626-18:16:38|37=12538802|11=V9vqBJtmKfkBAAAB|76=SCMS|17=9058571|20=0|150=0|39=0|1=TESTER1|55=IBM|54=1|38=505|40=1|15=USD|59=0|32=0|31=0.00000000|151=505|14=0|6=0.00000000|60=20230626-18:16:39|58=New order|10=001|
20230627-03:16:42.575 RCV-001174:8=FIX.4.2|9=314|35=8|56=TORAUAT|115=REDITORART|128=TESTGROUP|129=ahasan|34=1174|49=AUTEXTST|52=20230626-18:16:41|37=12538796|11=WNGVEJtmKkYCAAAB|76=VNDT|17=9058572|20=0|150=1|39=1|1=TESTER1|55=IBM|54=1|38=1000|40=1|15=USD|59=0|32=250|31=130.40000000|30=PA|151=470|14=530|6=130.40000000|60=20230626-18:16:42|58=Partial Fill|9730=A|10=162|
20230627-03:16:58.153 SNT-001054:8=FIX.4.2|9=425|35=G|34=1054|49=TORAUAT|52=20230626-18:16:58.152|56=AUTEXTST|115=TESTGROUP|116=rranjan|128=REDITORART|129=ALGO|1=TESTER1|11=V9vqBGSZkFkAAXhm|15=USD|21=1|22=5|38=505|40=1|41=V9vqBJtmKfkBAAAB|47=A|48=IBM.N|54=1|55=IBM|58=REDI2|59=0|60=20230626-18:16:58|76=SCMS|167=CS|2600=SCMS|2607=Rajnish Ranjan|2610=ALGO|2612=TESTGROUP|7212=Y|7213=NA|9301=317|9311=20230626-19:16:09|9315=N|9316=20230626-20:16:09|9320=0.0|9330=2|14002=TORA|10=180|
20230627-03:16:58.472 RCV-001175:8=FIX.4.2|9=325|35=8|56=TORAUAT|115=REDITORART|128=TESTGROUP|116=ALGO|129=rranjan|34=1175|49=AUTEXTST|52=20230626-18:16:57|37=12538802|11=V9vqBGSZkFkAAXhm|41=V9vqBJtmKfkBAAAB|76=SCMS|17=9058573|20=0|150=E|39=E|1=TESTER1|55=IBM|54=1|38=505|40=1|15=USD|59=0|32=0|31=0.00000000|151=505|14=0|6=0.00000000|60=20230626-18:16:58|58=Replace pending|10=156|
20230627-03:16:58.489 RCV-001176:8=FIX.4.2|9=318|35=8|56=TORAUAT|115=REDITORART|128=TESTGROUP|116=ALGO|129=rranjan|34=1176|49=AUTEXTST|52=20230626-18:16:57|37=12538805|11=V9vqBGSZkFkAAXhm|41=V9vqBJtmKfkBAAAB|76=SCMS|17=9058574|20=0|150=5|39=5|1=TESTER1|55=IBM|54=1|38=505|40=1|15=USD|59=0|32=0|31=0.00000000|151=505|14=0|6=0.00000000|60=20230626-18:16:58|58=Replaced|10=226|
20230627-03:17:02.397 SNT-001055:8=FIX.4.2|9=398|35=F|34=1055|49=TORAUAT|52=20230626-18:17:02.396|56=AUTEXTST|115=TESTGROUP|116=rranjan|128=REDITORART|129=ALGO|1=TESTER1|11=V9vqBGSZkFkAAXjI|22=5|38=505|41=V9vqBGSZkFkAAXhm|48=IBM.N|54=1|55=IBM|58=REDI2|60=20230626-18:17:02|76=SCMS|167=CS|2600=SCMS|2607=Rajnish Ranjan|2610=ALGO|2612=TESTGROUP|7212=Y|7213=NA|9301=317|9311=20230626-19:16:09|9315=N|9316=20230626-20:16:09|9320=0.0|9330=2|14002=TORA|10=199|
20230627-03:17:02.559 RCV-001177:8=FIX.4.2|9=314|35=8|56=TORAUAT|115=REDITORART|128=TESTGROUP|129=ahasan|34=1177|49=AUTEXTST|52=20230626-18:17:01|37=12538796|11=WNGVEJtmKkYCAAAB|76=VNDT|17=9058575|20=0|150=1|39=1|1=TESTER1|55=IBM|54=1|38=1000|40=1|15=USD|59=0|32=250|31=130.40000000|30=PA|151=220|14=780|6=130.40000000|60=20230626-18:17:02|58=Partial Fill|9730=A|10=162|
20230627-03:17:02.721 RCV-001178:8=FIX.4.2|9=338|35=8|56=TORAUAT|115=REDITORART|128=TESTGROUP|116=ALGO|129=rranjan|34=1178|49=AUTEXTST|52=20230626-18:17:01|37=12538808|11=V9vqBGSZkFkAAXjI|41=V9vqBGSZkFkAAXhm|76=SCMS|17=9058576|20=0|150=6|39=6|1=TESTER1|55=IBM|48=IBM.N|22=5|54=1|38=505|40=1|15=USD|59=0|32=0|31=0.00000000|151=505|14=0|6=0.00000000|60=20230626-18:17:02|58=Cancel pending|10=232|
20230627-03:17:02.738 RCV-001179:8=FIX.4.2|9=339|35=8|56=TORAUAT|115=REDITORART|128=TESTGROUP|116=ALGO|129=rranjan|34=1179|49=AUTEXTST|52=20230626-18:17:01|37=12538805|11=V9vqBGSZkFkAAXjI|41=V9vqBGSZkFkAAXhm|76=SCMS|17=9058577|20=0|150=4|39=4|1=TESTER1|55=IBM|48=IBM.N|22=5|54=1|38=505|40=1|15=USD|59=0|32=0|31=0.00000000|151=0|14=0|6=0.00000000|60=20230626-18:17:02|58=Cancelled by User|10=100|
20230627-03:17:22.585 RCV-001180:8=FIX.4.2|9=305|35=8|56=TORAUAT|115=REDITORART|128=TESTGROUP|129=ahasan|34=1180|49=AUTEXTST|52=20230626-18:17:21|37=12538796|11=WNGVEJtmKkYCAAAB|76=VNDT|17=9058578|20=0|150=2|39=2|1=TESTER1|55=IBM|54=1|38=1000|40=1|15=USD|59=0|32=220|31=130.40000000|30=PA|151=0|14=1000|6=130.40000000|60=20230626-18:17:22|58=Fill|9730=A|10=115|
20230627-03:17:48.831 SNT-001056:8=FIX.4.2|9=405|35=D|34=1056|49=TORAUAT|52=20230626-18:17:48.830|56=AUTEXTST|115=TESTGROUP|116=rranjan|128=REDITORART|129=ALGO|1=TESTER1|11=V9vqBJtmKbQBAAAB|15=USD|21=1|22=5|38=505|40=1|47=A|48=IBM.N|54=1|55=IBM|58=TORA2|59=0|60=20230626-18:17:48|76=SCMS|167=CS|2600=SCMS|2607=Rajnish Ranjan|2610=ALGO|2612=TESTGROUP|7212=N|7213=IA|9301=317|9311=20230626-19:17:27|9315=Y|9316=20230626-20:17:26|9320=0.0|9330=1|14002=TORA|10=137|
20230627-03:17:49.152 RCV-001181:8=FIX.4.2|9=299|35=8|56=TORAUAT|115=REDITORART|128=TESTGROUP|116=ALGO|129=rranjan|34=1181|49=AUTEXTST|52=20230626-18:17:47|37=12538810|11=V9vqBJtmKbQBAAAB|76=SCMS|17=9058579|20=0|150=0|39=0|1=TESTER1|55=IBM|54=1|38=505|40=1|15=USD|59=0|32=0|31=0.00000000|151=505|14=0|6=0.00000000|60=20230626-18:17:48|58=New order|10=235|
20230627-03:18:09.389 SNT-001057:8=FIX.4.2|9=425|35=G|34=1057|49=TORAUAT|52=20230626-18:18:09.389|56=AUTEXTST|115=TESTGROUP|116=rranjan|128=REDITORART|129=ALGO|1=TESTER1|11=V9vqBGSZkFkAAXnK|15=USD|21=1|22=5|38=505|40=1|41=V9vqBJtmKbQBAAAB|47=A|48=IBM.N|54=1|55=IBM|58=TORA2|59=0|60=20230626-18:18:09|76=SCMS|167=CS|2600=SCMS|2607=Rajnish Ranjan|2610=ALGO|2612=TESTGROUP|7212=Y|7213=NA|9301=317|9311=20230626-19:17:27|9315=N|9316=20230626-20:17:26|9320=0.0|9330=2|14002=TORA|10=152|
20230627-03:18:09.718 RCV-001182:8=FIX.4.2|9=325|35=8|56=TORAUAT|115=REDITORART|128=TESTGROUP|116=ALGO|129=rranjan|34=1182|49=AUTEXTST|52=20230626-18:18:08|37=12538810|11=V9vqBGSZkFkAAXnK|41=V9vqBJtmKbQBAAAB|76=SCMS|17=9058580|20=0|150=E|39=E|1=TESTER1|55=IBM|54=1|38=505|40=1|15=USD|59=0|32=0|31=0.00000000|151=505|14=0|6=0.00000000|60=20230626-18:18:09|58=Replace pending|10=089|
20230627-03:18:09.736 RCV-001183:8=FIX.4.2|9=318|35=8|56=TORAUAT|115=REDITORART|128=TESTGROUP|116=ALGO|129=rranjan|34=1183|49=AUTEXTST|52=20230626-18:18:08|37=12538812|11=V9vqBGSZkFkAAXnK|41=V9vqBJtmKbQBAAAB|76=SCMS|17=9058581|20=0|150=5|39=5|1=TESTER1|55=IBM|54=1|38=505|40=1|15=USD|59=0|32=0|31=0.00000000|151=505|14=0|6=0.00000000|60=20230626-18:18:09|58=Replaced|10=158|
20230627-03:18:12.046 SNT-001058:8=FIX.4.2|9=398|35=F|34=1058|49=TORAUAT|52=20230626-18:18:12.046|56=AUTEXTST|115=TESTGROUP|116=rranjan|128=REDITORART|129=ALGO|1=TESTER1|11=V9vqBGSZkFkAAXoq|22=5|38=505|41=V9vqBGSZkFkAAXnK|48=IBM.N|54=1|55=IBM|58=TORA2|60=20230626-18:18:12|76=SCMS|167=CS|2600=SCMS|2607=Rajnish Ranjan|2610=ALGO|2612=TESTGROUP|7212=Y|7213=NA|9301=317|9311=20230626-19:17:27|9315=N|9316=20230626-20:17:26|9320=0.0|9330=2|14002=TORA|10=234|
20230627-03:18:12.371 RCV-001184:8=FIX.4.2|9=338|35=8|56=TORAUAT|115=REDITORART|128=TESTGROUP|116=ALGO|129=rranjan|34=1184|49=AUTEXTST|52=20230626-18:18:11|37=12538814|11=V9vqBGSZkFkAAXoq|41=V9vqBGSZkFkAAXnK|76=SCMS|17=9058582|20=0|150=6|39=6|1=TESTER1|55=IBM|48=IBM.N|22=5|54=1|38=505|40=1|15=USD|59=0|32=0|31=0.00000000|151=505|14=0|6=0.00000000|60=20230626-18:18:12|58=Cancel pending|10=244|
20230627-03:18:12.389 RCV-001185:8=FIX.4.2|9=339|35=8|56=TORAUAT|115=REDITORART|128=TESTGROUP|116=ALGO|129=rranjan|34=1185|49=AUTEXTST|52=20230626-18:18:11|37=12538812|11=V9vqBGSZkFkAAXoq|41=V9vqBGSZkFkAAXnK|76=SCMS|17=9058583|20=0|150=4|39=4|1=TESTER1|55=IBM|48=IBM.N|22=5|54=1|38=505|40=1|15=USD|59=0|32=0|31=0.00000000|151=0|14=0|6=0.00000000|60=20230626-18:18:12|58=Cancelled by User|10=113|
20230627-03:19:12.140 SNT-001059:8=FIX.4.2|9=410|35=D|34=1059|49=TORAUAT|52=20230626-18:19:12.140|56=AUTEXTST|115=TESTGROUP|116=rranjan|128=REDITORART|129=ALGO|1=TESTER1|11=V9vqBJtmKWABAAAB|15=USD|21=1|22=5|38=505|40=1|47=A|48=IBM.N|54=1|55=IBM|58=REDI3|59=0|60=20230626-18:19:12|76=SCMS|167=CS|2600=SCMS|2607=Rajnish Ranjan|2610=ALGO|2612=TESTGROUP|7212=N|7213=IA|9301=320|9308=CUSTOM|9311=20230626-19:18:35|9316=20230626-20:18:36|9320=0.0|9321=1|14002=TORA|10=200|
20230627-03:19:12.463 RCV-001186:8=FIX.4.2|9=299|35=8|56=TORAUAT|115=REDITORART|128=TESTGROUP|116=ALGO|129=rranjan|34=1186|49=AUTEXTST|52=20230626-18:19:11|37=12538815|11=V9vqBJtmKWABAAAB|76=SCMS|17=9058584|20=0|150=0|39=0|1=TESTER1|55=IBM|54=1|38=505|40=1|15=USD|59=0|32=0|31=0.00000000|151=505|14=0|6=0.00000000|60=20230626-18:19:12|58=New order|10=200|
20230627-03:19:49.645 SNT-001060:8=FIX.4.2|9=432|35=G|34=1060|49=TORAUAT|52=20230626-18:19:49.645|56=AUTEXTST|115=TESTGROUP|116=rranjan|128=REDITORART|129=ALGO|1=TESTER1|11=V9vqBGSZkFkAAXtg|15=USD|21=1|22=5|38=505|40=1|41=V9vqBJtmKWABAAAB|47=A|48=IBM.N|54=1|55=IBM|58=REDI3|59=0|60=20230626-18:19:49|76=SCMS|167=CS|2600=SCMS|2607=Rajnish Ranjan|2610=ALGO|2612=TESTGROUP|7212=Y|7213=NA|9301=320|9308=CUSTOM1|9311=20230626-19:18:35|9316=20230626-20:18:36|9320=1.11|9321=2|14002=TORA|10=122|
20230627-03:19:49.971 RCV-001187:8=FIX.4.2|9=325|35=8|56=TORAUAT|115=REDITORART|128=TESTGROUP|116=ALGO|129=rranjan|34=1187|49=AUTEXTST|52=20230626-18:19:48|37=12538815|11=V9vqBGSZkFkAAXtg|41=V9vqBJtmKWABAAAB|76=SCMS|17=9058585|20=0|150=E|39=E|1=TESTER1|55=IBM|54=1|38=505|40=1|15=USD|59=0|32=0|31=0.00000000|151=505|14=0|6=0.00000000|60=20230626-18:19:49|58=Replace pending|10=121|
20230627-03:19:50.022 RCV-001188:8=FIX.4.2|9=318|35=8|56=TORAUAT|115=REDITORART|128=TESTGROUP|116=ALGO|129=rranjan|34=1188|49=AUTEXTST|52=20230626-18:19:48|37=12538817|11=V9vqBGSZkFkAAXtg|41=V9vqBJtmKWABAAAB|76=SCMS|17=9058586|20=0|150=5|39=5|1=TESTER1|55=IBM|54=1|38=505|40=1|15=USD|59=0|32=0|31=0.00000000|151=505|14=0|6=0.00000000|60=20230626-18:19:49|58=Replaced|10=190|
20230627-03:19:53.443 SNT-001061:8=FIX.4.2|9=405|35=F|34=1061|49=TORAUAT|52=20230626-18:19:53.443|56=AUTEXTST|115=TESTGROUP|116=rranjan|128=REDITORART|129=ALGO|1=TESTER1|11=V9vqBGSZkFkAAXvC|22=5|38=505|41=V9vqBGSZkFkAAXtg|48=IBM.N|54=1|55=IBM|58=REDI3|60=20230626-18:19:53|76=SCMS|167=CS|2600=SCMS|2607=Rajnish Ranjan|2610=ALGO|2612=TESTGROUP|7212=Y|7213=NA|9301=320|9308=CUSTOM1|9311=20230626-19:18:35|9316=20230626-20:18:36|9320=1.11|9321=2|14002=TORA|10=191|
20230627-03:19:53.788 RCV-001189:8=FIX.4.2|9=338|35=8|56=TORAUAT|115=REDITORART|128=TESTGROUP|116=ALGO|129=rranjan|34=1189|49=AUTEXTST|52=20230626-18:19:52|37=12538819|11=V9vqBGSZkFkAAXvC|41=V9vqBGSZkFkAAXtg|76=SCMS|17=9058587|20=0|150=6|39=6|1=TESTER1|55=IBM|48=IBM.N|22=5|54=1|38=505|40=1|15=USD|59=0|32=0|31=0.00000000|151=505|14=0|6=0.00000000|60=20230626-18:19:53|58=Cancel pending|10=010|
20230627-03:19:53.805 RCV-001190:8=FIX.4.2|9=339|35=8|56=TORAUAT|115=REDITORART|128=TESTGROUP|116=ALGO|129=rranjan|34=1190|49=AUTEXTST|52=20230626-18:19:52|37=12538817|11=V9vqBGSZkFkAAXvC|41=V9vqBGSZkFkAAXtg|76=SCMS|17=9058588|20=0|150=4|39=4|1=TESTER1|55=IBM|48=IBM.N|22=5|54=1|38=505|40=1|15=USD|59=0|32=0|31=0.00000000|151=0|14=0|6=0.00000000|60=20230626-18:19:53|58=Cancelled by User|10=126|
20230627-03:20:41.438 SNT-001062:8=FIX.4.2|9=410|35=D|34=1062|49=TORAUAT|52=20230626-18:20:41.438|56=AUTEXTST|115=TESTGROUP|116=rranjan|128=REDITORART|129=ALGO|1=TESTER1|11=V9vqBJtmKQcBAAAB|15=USD|21=1|22=5|38=505|40=1|47=A|48=IBM.N|54=1|55=IBM|58=TORA3|59=0|60=20230626-18:20:41|76=SCMS|167=CS|2600=SCMS|2607=Rajnish Ranjan|2610=ALGO|2612=TESTGROUP|7212=N|7213=IA|9301=320|9308=CUSTOM|9311=20230626-19:20:11|9316=20230626-20:20:13|9320=0.0|9321=1|14002=TORA|10=213|
20230627-03:20:41.778 RCV-001191:8=FIX.4.2|9=299|35=8|56=TORAUAT|115=REDITORART|128=TESTGROUP|116=ALGO|129=rranjan|34=1191|49=AUTEXTST|52=20230626-18:20:40|37=12538820|11=V9vqBJtmKQcBAAAB|76=SCMS|17=9058589|20=0|150=0|39=0|1=TESTER1|55=IBM|54=1|38=505|40=1|15=USD|59=0|32=0|31=0.00000000|151=505|14=0|6=0.00000000|60=20230626-18:20:41|58=New order|10=213|
20230627-03:21:16.216 SNT-001063:8=FIX.4.2|9=432|35=G|34=1063|49=TORAUAT|52=20230626-18:21:16.216|56=AUTEXTST|115=TESTGROUP|116=rranjan|128=REDITORART|129=ALGO|1=TESTER1|11=V9vqBGSZkFkAAXzi|15=USD|21=1|22=5|38=505|40=1|41=V9vqBJtmKQcBAAAB|47=A|48=IBM.N|54=1|55=IBM|58=TORA3|59=0|60=20230626-18:21:16|76=SCMS|167=CS|2600=SCMS|2607=Rajnish Ranjan|2610=ALGO|2612=TESTGROUP|7212=Y|7213=IA|9301=320|9308=CUSTOM1|9311=20230626-19:20:11|9316=20230626-20:20:13|9320=1.11|9321=2|14002=TORA|10=117|
20230627-03:21:16.549 RCV-001192:8=FIX.4.2|9=325|35=8|56=TORAUAT|115=REDITORART|128=TESTGROUP|116=ALGO|129=rranjan|34=1192|49=AUTEXTST|52=20230626-18:21:15|37=12538820|11=V9vqBGSZkFkAAXzi|41=V9vqBJtmKQcBAAAB|76=SCMS|17=9058590|20=0|150=E|39=E|1=TESTER1|55=IBM|54=1|38=505|40=1|15=USD|59=0|32=0|31=0.00000000|151=505|14=0|6=0.00000000|60=20230626-18:21:16|58=Replace pending|10=119|
20230627-03:21:16.566 RCV-001193:8=FIX.4.2|9=318|35=8|56=TORAUAT|115=REDITORART|128=TESTGROUP|116=ALGO|129=rranjan|34=1193|49=AUTEXTST|52=20230626-18:21:15|37=12538822|11=V9vqBGSZkFkAAXzi|41=V9vqBJtmKQcBAAAB|76=SCMS|17=9058591|20=0|150=5|39=5|1=TESTER1|55=IBM|54=1|38=505|40=1|15=USD|59=0|32=0|31=0.00000000|151=505|14=0|6=0.00000000|60=20230626-18:21:16|58=Replaced|10=188|
20230627-03:21:19.714 SNT-001064:8=FIX.4.2|9=405|35=F|34=1064|49=TORAUAT|52=20230626-18:21:19.714|56=AUTEXTST|115=TESTGROUP|116=rranjan|128=REDITORART|129=ALGO|1=TESTER1|11=V9vqBGSZkFkAAX1E|22=5|38=505|41=V9vqBGSZkFkAAXzi|48=IBM.N|54=1|55=IBM|58=TORA3|60=20230626-18:21:19|76=SCMS|167=CS|2600=SCMS|2607=Rajnish Ranjan|2610=ALGO|2612=TESTGROUP|7212=Y|7213=IA|9301=320|9308=CUSTOM1|9311=20230626-19:20:11|9316=20230626-20:20:13|9320=1.11|9321=2|14002=TORA|10=114|
20230627-03:21:20.055 RCV-001194:8=FIX.4.2|9=338|35=8|56=TORAUAT|115=REDITORART|128=TESTGROUP|116=ALGO|129=rranjan|34=1194|49=AUTEXTST|52=20230626-18:21:18|37=12538825|11=V9vqBGSZkFkAAX1E|41=V9vqBGSZkFkAAXzi|76=SCMS|17=9058593|20=0|150=6|39=6|1=TESTER1|55=IBM|48=IBM.N|22=5|54=1|38=505|40=1|15=USD|59=0|32=0|31=0.00000000|151=505|14=0|6=0.00000000|60=20230626-18:21:19|58=Cancel pending|10=187|
20230627-03:21:20.070 RCV-001195:8=FIX.4.2|9=339|35=8|56=TORAUAT|115=REDITORART|128=TESTGROUP|116=ALGO|129=rranjan|34=1195|49=AUTEXTST|52=20230626-18:21:18|37=12538822|11=V9vqBGSZkFkAAX1E|41=V9vqBGSZkFkAAXzi|76=SCMS|17=9058594|20=0|150=4|39=4|1=TESTER1|55=IBM|48=IBM.N|22=5|54=1|38=505|40=1|15=USD|59=0|32=0|31=0.00000000|151=0|14=0|6=0.00000000|60=20230626-18:21:19|58=Cancelled by User|10=055|
20230627-03:22:18.892 SNT-001065:8=FIX.4.2|9=360|35=D|34=1065|49=TORAUAT|52=20230626-18:22:18.892|56=AUTEXTST|115=TESTGROUP|116=rranjan|128=REDITORART|129=ALGO|1=TESTER1|11=V9vqBJtmKKYBAAAB|15=USD|21=1|22=5|38=505|40=1|47=A|48=IBM.N|54=1|55=IBM|58=REDI4|59=0|60=20230626-18:22:18|76=SCMS|110=0|167=CS|2600=SCMS|2607=Rajnish Ranjan|2610=ALGO|2612=TESTGROUP|7212=Y|7213=IA|9301=86|9317=TRIACT|9381=1|14002=TORA|10=040|
20230627-03:22:19.213 RCV-001196:8=FIX.4.2|9=357|35=8|56=TORAUAT|115=REDITORART|128=TESTGROUP|116=ALGO|129=rranjan|34=1196|49=AUTEXTST|52=20230626-18:22:17|37=12538826|11=V9vqBJtmKKYBAAAB|76=SCMS|17=9058595|20=0|150=8|39=8|103=0|1=TESTER1|55=IBM|54=1|38=505|40=1|15=USD|59=0|32=0|31=0.00000000|151=0|14=0|6=0.00000000|60=20230626-18:22:19|21=1|58=REJ-MINQTY MUST BE GREATER THAN 100 AND LESS THAN ORDERQTY|10=062|
20230627-03:23:10.410 SNT-001066:8=FIX.4.2|9=360|35=D|34=1066|49=TORAUAT|52=20230626-18:23:10.410|56=AUTEXTST|115=TESTGROUP|116=rranjan|128=REDITORART|129=ALGO|1=TESTER1|11=V9vqBJtmKHIBAAAB|15=USD|21=1|22=5|38=505|40=1|47=A|48=IBM.N|54=1|55=IBM|58=TORA4|59=0|60=20230626-18:23:10|76=SCMS|110=0|167=CS|2600=SCMS|2607=Rajnish Ranjan|2610=ALGO|2612=TESTGROUP|7212=Y|7213=IA|9301=86|9317=TRIACT|9381=1|14002=TORA|10=012|
20230627-03:23:10.738 RCV-001197:8=FIX.4.2|9=357|35=8|56=TORAUAT|115=REDITORART|128=TESTGROUP|116=ALGO|129=rranjan|34=1197|49=AUTEXTST|52=20230626-18:23:09|37=12538827|11=V9vqBJtmKHIBAAAB|76=SCMS|17=9058596|20=0|150=8|39=8|103=0|1=TESTER1|55=IBM|54=1|38=505|40=1|15=USD|59=0|32=0|31=0.00000000|151=0|14=0|6=0.00000000|60=20230626-18:23:10|21=1|58=REJ-MINQTY MUST BE GREATER THAN 100 AND LESS THAN ORDERQTY|10=040|
20230627-03:24:10.882 RCV-001198:8=FIX.4.2|9=57|35=0|34=1198|49=AUTEXTST|56=TORAUAT|52=20230626-18:24:09|10=089|
20230627-03:24:10.883 SNT-001067:8=FIX.4.2|9=61|35=0|34=1067|49=TORAUAT|52=20230626-18:24:10.883|56=AUTEXTST|10=024|
20230627-03:24:53.682 SNT-001068:8=FIX.4.2|9=389|35=D|34=1068|49=TORAUAT|52=20230626-18:24:53.682|56=AUTEXTST|115=TESTGROUP|116=rranjan|128=REDITORART|129=ALGO|1=TESTER1|11=V9vqBJtmKAsBAAAB|15=USD|21=1|22=5|38=505|40=1|47=A|48=IBM.N|54=1|55=IBM|58=TORA5|59=0|60=20230626-18:24:53|76=SCMS|167=CS|2600=SCMS|2607=Rajnish Ranjan|2610=ALGO|2612=TESTGROUP|7212=N|7213=IA|9301=316|9311=20230626-19:23:44|9316=20230626-20:23:46|9381=1|14002=TORA|10=145|
20230627-03:24:54.007 RCV-001199:8=FIX.4.2|9=299|35=8|56=TORAUAT|115=REDITORART|128=TESTGROUP|116=ALGO|129=rranjan|34=1199|49=AUTEXTST|52=20230626-18:24:52|37=12538830|11=V9vqBJtmKAsBAAAB|76=SCMS|17=9058599|20=0|150=0|39=0|1=TESTER1|55=IBM|54=1|38=505|40=1|15=USD|59=0|32=0|31=0.00000000|151=505|14=0|6=0.00000000|60=20230626-18:24:53|58=New order|10=237|
20230627-03:25:13.427 SNT-001069:8=FIX.4.2|9=409|35=G|34=1069|49=TORAUAT|52=20230626-18:25:13.426|56=AUTEXTST|115=TESTGROUP|116=rranjan|128=REDITORART|129=ALGO|1=TESTER1|11=V9vqBGSZkFkAAYAM|15=USD|21=1|22=5|38=505|40=1|41=V9vqBJtmKAsBAAAB|47=A|48=IBM.N|54=1|55=IBM|58=TORA5|59=0|60=20230626-18:25:13|76=SCMS|167=CS|2600=SCMS|2607=Rajnish Ranjan|2610=ALGO|2612=TESTGROUP|7212=Y|7213=NA|9301=316|9311=20230626-19:23:44|9316=20230626-20:23:46|9381=2|14002=TORA|10=105|
20230627-03:25:13.752 RCV-001200:8=FIX.4.2|9=325|35=8|56=TORAUAT|115=REDITORART|128=TESTGROUP|116=ALGO|129=rranjan|34=1200|49=AUTEXTST|52=20230626-18:25:12|37=12538830|11=V9vqBGSZkFkAAYAM|41=V9vqBJtmKAsBAAAB|76=SCMS|17=9058600|20=0|150=E|39=E|1=TESTER1|55=IBM|54=1|38=505|40=1|15=USD|59=0|32=0|31=0.00000000|151=505|14=0|6=0.00000000|60=20230626-18:25:13|58=Replace pending|10=020|
20230627-03:25:13.769 RCV-001201:8=FIX.4.2|9=318|35=8|56=TORAUAT|115=REDITORART|128=TESTGROUP|116=ALGO|129=rranjan|34=1201|49=AUTEXTST|52=20230626-18:25:12|37=12538832|11=V9vqBGSZkFkAAYAM|41=V9vqBJtmKAsBAAAB|76=SCMS|17=9058601|20=0|150=5|39=5|1=TESTER1|55=IBM|54=1|38=505|40=1|15=USD|59=0|32=0|31=0.00000000|151=505|14=0|6=0.00000000|60=20230626-18:25:13|58=Replaced|10=089|
20230627-03:25:16.728 SNT-001070:8=FIX.4.2|9=382|35=F|34=1070|49=TORAUAT|52=20230626-18:25:16.728|56=AUTEXTST|115=TESTGROUP|116=rranjan|128=REDITORART|129=ALGO|1=TESTER1|11=V9vqBGSZkFkAAYBq|22=5|38=505|41=V9vqBGSZkFkAAYAM|48=IBM.N|54=1|55=IBM|58=TORA5|60=20230626-18:25:16|76=SCMS|167=CS|2600=SCMS|2607=Rajnish Ranjan|2610=ALGO|2612=TESTGROUP|7212=Y|7213=NA|9301=316|9311=20230626-19:23:44|9316=20230626-20:23:46|9381=2|14002=TORA|10=157|
20230627-03:25:17.050 RCV-001202:8=FIX.4.2|9=338|35=8|56=TORAUAT|115=REDITORART|128=TESTGROUP|116=ALGO|129=rranjan|34=1202|49=AUTEXTST|52=20230626-18:25:15|37=12538834|11=V9vqBGSZkFkAAYBq|41=V9vqBGSZkFkAAYAM|76=SCMS|17=9058602|20=0|150=6|39=6|1=TESTER1|55=IBM|48=IBM.N|22=5|54=1|38=505|40=1|15=USD|59=0|32=0|31=0.00000000|151=505|14=0|6=0.00000000|60=20230626-18:25:16|58=Cancel pending|10=148|
20230627-03:25:17.064 RCV-001203:8=FIX.4.2|9=339|35=8|56=TORAUAT|115=REDITORART|128=TESTGROUP|116=ALGO|129=rranjan|34=1203|49=AUTEXTST|52=20230626-18:25:15|37=12538832|11=V9vqBGSZkFkAAYBq|41=V9vqBGSZkFkAAYAM|76=SCMS|17=9058603|20=0|150=4|39=4|1=TESTER1|55=IBM|48=IBM.N|22=5|54=1|38=505|40=1|15=USD|59=0|32=0|31=0.00000000|151=0|14=0|6=0.00000000|60=20230626-18:25:16|58=Cancelled by User|10=017|
20230627-03:26:01.442 SNT-001071:8=FIX.4.2|9=389|35=D|34=1071|49=TORAUAT|52=20230626-18:26:01.442|56=AUTEXTST|115=TESTGROUP|116=rranjan|128=REDITORART|129=ALGO|1=TESTER1|11=V9vqBJtmJ8cBAAAB|15=USD|21=1|22=5|38=505|40=1|47=A|48=IBM.N|54=1|55=IBM|58=REDI5|59=0|60=20230626-18:26:01|76=SCMS|167=CS|2600=SCMS|2607=Rajnish Ranjan|2610=ALGO|2612=TESTGROUP|7212=Y|7213=NA|9370=316|9311=20230626-19:23:44|9316=20230626-20:23:46|14002=TORA|10=096|
20230627-03:26:01.770 RCV-001204:8=FIX.4.2|9=299|35=8|56=TORAUAT|115=REDITORART|128=TESTGROUP|116=ALGO|129=rranjan|34=1204|49=AUTEXTST|52=20230626-18:26:00|37=12538835|11=V9vqBJtmJ8cBAAAB|76=SCMS|17=9058604|20=0|150=0|39=0|1=TESTER1|55=IBM|54=1|38=505|40=1|15=USD|59=0|32=0|31=0.00000000|151=505|14=0|6=0.00000000|60=20230626-18:26:01|58=New order|10=180|
20230627-03:26:19.186 SNT-001072:8=FIX.4.2|9=409|35=G|34=1072|49=TORAUAT|52=20230626-18:26:19.185|56=AUTEXTST|115=TESTGROUP|116=rranjan|128=REDITORART|129=ALGO|1=TESTER1|11=V9vqBGSZkFkAAYH4|15=USD|21=1|22=5|38=505|40=1|41=V9vqBJtmJ8cBAAAB|47=A|48=IBM.N|54=1|55=IBM|58=REDI5|59=0|60=20230626-18:26:19|76=SCMS|167=CS|2600=SCMS|2607=Rajnish Ranjan|2610=ALGO|2612=TESTGROUP|7212=N|7213=IA|9301=316|9311=20230626-19:23:44|9316=20230626-20:23:46|9381=2|14002=TORA|10=052|
20230627-03:26:19.508 RCV-001205:8=FIX.4.2|9=325|35=8|56=TORAUAT|115=REDITORART|128=TESTGROUP|116=ALGO|129=rranjan|34=1205|49=AUTEXTST|52=20230626-18:26:18|37=12538835|11=V9vqBGSZkFkAAYH4|41=V9vqBJtmJ8cBAAAB|76=SCMS|17=9058605|20=0|150=E|39=E|1=TESTER1|55=IBM|54=1|38=505|40=1|15=USD|59=0|32=0|31=0.00000000|151=505|14=0|6=0.00000000|60=20230626-18:26:19|58=Replace pending|10=020|
20230627-03:26:19.526 RCV-001206:8=FIX.4.2|9=318|35=8|56=TORAUAT|115=REDITORART|128=TESTGROUP|116=ALGO|129=rranjan|34=1206|49=AUTEXTST|52=20230626-18:26:18|37=12538837|11=V9vqBGSZkFkAAYH4|41=V9vqBJtmJ8cBAAAB|76=SCMS|17=9058606|20=0|150=5|39=5|1=TESTER1|55=IBM|54=1|38=505|40=1|15=USD|59=0|32=0|31=0.00000000|151=505|14=0|6=0.00000000|60=20230626-18:26:19|58=Replaced|10=089|
20230627-03:26:37.094 SNT-001074:8=FIX.4.2|9=382|35=F|34=1074|49=TORAUAT|52=20230626-18:26:37.094|56=AUTEXTST|115=TESTGROUP|116=rranjan|128=REDITORART|129=ALGO|1=TESTER1|11=V9vqBGSZkFkAAYJc|22=5|38=506|41=V9vqBGSZkFkAAYH4|48=IBM.N|54=1|55=IBM|58=REDI5|60=20230626-18:26:37|76=SCMS|167=CS|2600=SCMS|2607=Rajnish Ranjan|2610=ALGO|2612=TESTGROUP|7212=N|7213=IA|9301=316|9311=20230626-19:23:44|9316=20230626-20:23:46|9381=2|14002=TORA|10=108|
20230627-03:26:37.416 RCV-001209:8=FIX.4.2|9=338|35=8|56=TORAUAT|115=REDITORART|128=TESTGROUP|116=ALGO|129=rranjan|34=1209|49=AUTEXTST|52=20230626-18:26:36|37=12538842|11=V9vqBGSZkFkAAYJc|41=V9vqBGSZkFkAAYH4|76=SCMS|17=9058609|20=0|150=6|39=6|1=TESTER1|55=IBM|48=IBM.N|22=5|54=1|38=506|40=1|15=USD|59=0|32=0|31=0.00000000|151=506|14=0|6=0.00000000|60=20230626-18:26:37|58=Cancel pending|10=147|
20230627-03:26:37.439 RCV-001210:8=FIX.4.2|9=339|35=8|56=TORAUAT|115=REDITORART|128=TESTGROUP|116=ALGO|129=rranjan|34=1210|49=AUTEXTST|52=20230626-18:26:36|37=12538840|11=V9vqBGSZkFkAAYJc|41=V9vqBGSZkFkAAYH4|76=SCMS|17=9058610|20=0|150=4|39=4|1=TESTER1|55=IBM|48=IBM.N|22=5|54=1|38=506|40=1|15=USD|59=0|32=0|31=0.00000000|151=0|14=0|6=0.00000000|60=20230626-18:26:37|58=Cancelled by User|10=253|
20230627-03:27:07.869 SNT-001075:8=FIX.4.2|9=336|35=D|34=1075|49=TORAUAT|52=20230626-18:27:07.869|56=AUTEXTST|115=TESTGROUP|116=rranjan|128=REDITORART|129=ALGO|1=TESTER1|11=V9vqBJtmJ4UBAAAB|15=USD|21=1|22=5|38=505|40=1|47=A|48=IBM.N|54=1|55=IBM|58=REDI6|59=0|60=20230626-18:27:07|76=SCMS|167=CS|2600=SCMS|2607=Rajnish Ranjan|2610=ALGO|2612=TESTGROUP|7212=N|7213=IA|9301=500|14002=TORA|10=027|
20230627-03:27:08.195 RCV-001211:8=FIX.4.2|9=299|35=8|56=TORAUAT|115=REDITORART|128=TESTGROUP|116=ALGO|129=rranjan|34=1211|49=AUTEXTST|52=20230626-18:27:06|37=12538843|11=V9vqBJtmJ4UBAAAB|76=SCMS|17=9058611|20=0|150=0|39=0|1=TESTER1|55=IBM|54=1|38=505|40=1|15=USD|59=0|32=0|31=0.00000000|151=505|14=0|6=0.00000000|60=20230626-18:27:08|58=New order|10=172|
20230627-03:27:22.942 SNT-001076:8=FIX.4.2|9=356|35=G|34=1076|49=TORAUAT|52=20230626-18:27:22.942|56=AUTEXTST|115=TESTGROUP|116=rranjan|128=REDITORART|129=ALGO|1=TESTER1|11=V9vqBGSZkFkAAYM0|15=USD|21=1|22=5|38=505|40=1|41=V9vqBJtmJ4UBAAAB|47=A|48=IBM.N|54=1|55=IBM|58=REDI6|59=0|60=20230626-18:27:22|76=SCMS|167=CS|2600=SCMS|2607=Rajnish Ranjan|2610=ALGO|2612=TESTGROUP|7212=Y|7213=NA|9301=500|14002=TORA|10=230|
20230627-03:27:23.264 RCV-001212:8=FIX.4.2|9=325|35=8|56=TORAUAT|115=REDITORART|128=TESTGROUP|116=ALGO|129=rranjan|34=1212|49=AUTEXTST|52=20230626-18:27:21|37=12538843|11=V9vqBGSZkFkAAYM0|41=V9vqBJtmJ4UBAAAB|76=SCMS|17=9058612|20=0|150=E|39=E|1=TESTER1|55=IBM|54=1|38=505|40=1|15=USD|59=0|32=0|31=0.00000000|151=505|14=0|6=0.00000000|60=20230626-18:27:23|58=Replace pending|10=230|
20230627-03:27:23.288 RCV-001213:8=FIX.4.2|9=318|35=8|56=TORAUAT|115=REDITORART|128=TESTGROUP|116=ALGO|129=rranjan|34=1213|49=AUTEXTST|52=20230626-18:27:21|37=12538845|11=V9vqBGSZkFkAAYM0|41=V9vqBJtmJ4UBAAAB|76=SCMS|17=9058613|20=0|150=5|39=5|1=TESTER1|55=IBM|54=1|38=505|40=1|15=USD|59=0|32=0|31=0.00000000|151=505|14=0|6=0.00000000|60=20230626-18:27:23|58=Replaced|10=043|
20230627-03:27:26.273 SNT-001077:8=FIX.4.2|9=329|35=F|34=1077|49=TORAUAT|52=20230626-18:27:26.273|56=AUTEXTST|115=TESTGROUP|116=rranjan|128=REDITORART|129=ALGO|1=TESTER1|11=V9vqBGSZkFkAAYOW|22=5|38=505|41=V9vqBGSZkFkAAYM0|48=IBM.N|54=1|55=IBM|58=REDI6|60=20230626-18:27:26|76=SCMS|167=CS|2600=SCMS|2607=Rajnish Ranjan|2610=ALGO|2612=TESTGROUP|7212=Y|7213=NA|9301=500|14002=TORA|10=060|
20230627-03:27:26.605 RCV-001214:8=FIX.4.2|9=338|35=8|56=TORAUAT|115=REDITORART|128=TESTGROUP|116=ALGO|129=rranjan|34=1214|49=AUTEXTST|52=20230626-18:27:25|37=12538847|11=V9vqBGSZkFkAAYOW|41=V9vqBGSZkFkAAYM0|76=SCMS|17=9058614|20=0|150=6|39=6|1=TESTER1|55=IBM|48=IBM.N|22=5|54=1|38=505|40=1|15=USD|59=0|32=0|31=0.00000000|151=505|14=0|6=0.00000000|60=20230626-18:27:26|58=Cancel pending|10=134|
20230627-03:27:26.620 RCV-001215:8=FIX.4.2|9=339|35=8|56=TORAUAT|115=REDITORART|128=TESTGROUP|116=ALGO|129=rranjan|34=1215|49=AUTEXTST|52=20230626-18:27:25|37=12538845|11=V9vqBGSZkFkAAYOW|41=V9vqBGSZkFkAAYM0|76=SCMS|17=9058615|20=0|150=4|39=4|1=TESTER1|55=IBM|48=IBM.N|22=5|54=1|38=505|40=1|15=USD|59=0|32=0|31=0.00000000|151=0|14=0|6=0.00000000|60=20230626-18:27:26|58=Cancelled by User|10=003|
20230627-03:27:54.579 SNT-001078:8=FIX.4.2|9=336|35=D|34=1078|49=TORAUAT|52=20230626-18:27:54.579|56=AUTEXTST|115=TESTGROUP|116=rranjan|128=REDITORART|129=ALGO|1=TESTER1|11=V9vqBJtmJ1YBAAAB|15=USD|21=1|22=5|38=505|40=1|47=A|48=IBM.N|54=1|55=IBM|58=TORA6|59=0|60=20230626-18:27:54|76=SCMS|167=CS|2600=SCMS|2607=Rajnish Ranjan|2610=ALGO|2612=TESTGROUP|7212=N|7213=IA|9301=500|14002=TORA|10=051|
20230627-03:27:54.945 RCV-001216:8=FIX.4.2|9=299|35=8|56=TORAUAT|115=REDITORART|128=TESTGROUP|116=ALGO|129=rranjan|34=1216|49=AUTEXTST|52=20230626-18:27:53|37=12538848|11=V9vqBJtmJ1YBAAAB|76=SCMS|17=9058616|20=0|150=0|39=0|1=TESTER1|55=IBM|54=1|38=505|40=1|15=USD|59=0|32=0|31=0.00000000|151=505|14=0|6=0.00000000|60=20230626-18:27:54|58=New order|10=191|
20230627-03:28:09.044 SNT-001079:8=FIX.4.2|9=356|35=G|34=1079|49=TORAUAT|52=20230626-18:28:09.044|56=AUTEXTST|115=TESTGROUP|116=rranjan|128=REDITORART|129=ALGO|1=TESTER1|11=V9vqBGSZkFkAAYRm|15=USD|21=1|22=5|38=505|40=1|41=V9vqBJtmJ1YBAAAB|47=A|48=IBM.N|54=1|55=IBM|58=TORA6|59=0|60=20230626-18:28:09|76=SCMS|167=CS|2600=SCMS|2607=Rajnish Ranjan|2610=ALGO|2612=TESTGROUP|7212=Y|7213=NA|9301=500|14002=TORA|10=067|
20230627-03:28:09.368 RCV-001217:8=FIX.4.2|9=325|35=8|56=TORAUAT|115=REDITORART|128=TESTGROUP|116=ALGO|129=rranjan|34=1217|49=AUTEXTST|52=20230626-18:28:08|37=12538848|11=V9vqBGSZkFkAAYRm|41=V9vqBJtmJ1YBAAAB|76=SCMS|17=9058617|20=0|150=E|39=E|1=TESTER1|55=IBM|54=1|38=505|40=1|15=USD|59=0|32=0|31=0.00000000|151=505|14=0|6=0.00000000|60=20230626-18:28:09|58=Replace pending|10=067|
20230627-03:28:09.386 RCV-001218:8=FIX.4.2|9=318|35=8|56=TORAUAT|115=REDITORART|128=TESTGROUP|116=ALGO|129=rranjan|34=1218|49=AUTEXTST|52=20230626-18:28:08|37=12538850|11=V9vqBGSZkFkAAYRm|41=V9vqBJtmJ1YBAAAB|76=SCMS|17=9058618|20=0|150=5|39=5|1=TESTER1|55=IBM|54=1|38=505|40=1|15=USD|59=0|32=0|31=0.00000000|151=505|14=0|6=0.00000000|60=20230626-18:28:09|58=Replaced|10=127|
20230627-03:28:11.572 SNT-001080:8=FIX.4.2|9=329|35=F|34=1080|49=TORAUAT|52=20230626-18:28:11.572|56=AUTEXTST|115=TESTGROUP|116=rranjan|128=REDITORART|129=ALGO|1=TESTER1|11=V9vqBGSZkFkAAYTE|22=5|38=505|41=V9vqBGSZkFkAAYRm|48=IBM.N|54=1|55=IBM|58=TORA6|60=20230626-18:28:11|76=SCMS|167=CS|2600=SCMS|2607=Rajnish Ranjan|2610=ALGO|2612=TESTGROUP|7212=Y|7213=NA|9301=500|14002=TORA|10=117|
20230627-03:28:11.913 RCV-001219:8=FIX.4.2|9=338|35=8|56=TORAUAT|115=REDITORART|128=TESTGROUP|116=ALGO|129=rranjan|34=1219|49=AUTEXTST|52=20230626-18:28:10|37=12538852|11=V9vqBGSZkFkAAYTE|41=V9vqBGSZkFkAAYRm|76=SCMS|17=9058619|20=0|150=6|39=6|1=TESTER1|55=IBM|48=IBM.N|22=5|54=1|38=505|40=1|15=USD|59=0|32=0|31=0.00000000|151=505|14=0|6=0.00000000|60=20230626-18:28:11|58=Cancel pending|10=183|
20230627-03:28:11.930 RCV-001220:8=FIX.4.2|9=339|35=8|56=TORAUAT|115=REDITORART|128=TESTGROUP|116=ALGO|129=rranjan|34=1220|49=AUTEXTST|52=20230626-18:28:10|37=12538850|11=V9vqBGSZkFkAAYTE|41=V9vqBGSZkFkAAYRm|76=SCMS|17=9058620|20=0|150=4|39=4|1=TESTER1|55=IBM|48=IBM.N|22=5|54=1|38=505|40=1|15=USD|59=0|32=0|31=0.00000000|151=0|14=0|6=0.00000000|60=20230626-18:28:11|58=Cancelled by User|10=034|
20230627-03:29:11.950 SNT-001081:8=FIX.4.2|9=61|35=0|34=1081|49=TORAUAT|52=20230626-18:29:11.950|56=AUTEXTST|10=021|
20230627-03:29:12.051 RCV-001221:8=FIX.4.2|9=57|35=0|34=1221|49=AUTEXTST|56=TORAUAT|52=20230626-18:29:10|10=073|
20230627-03:29:56.360 SNT-001082:8=FIX.4.2|9=437|35=D|34=1082|49=TORAUAT|52=20230626-18:29:56.359|56=AUTEXTST|115=TESTGROUP|116=rranjan|128=REDITORART|129=ALGO|1=TESTER1|11=V9vqBJtmJtwBAAAB|15=USD|21=1|22=5|38=505|40=1|47=A|48=IBM.N|54=1|55=IBM|58=REDI7|59=0|60=20230626-18:29:56|76=SCMS|167=CS|2600=SCMS|2607=Rajnish Ranjan|2610=ALGO|2612=TESTGROUP|7212=N|7213=IA|9301=402|9311=20230626-19:29:11|9315=Y|9316=20230626-20:29:27|9320=0.0|9324=0.0|9325=0.0|9330=1|9331=1|9332=1|14002=TORA|10=120|
20230627-03:29:56.685 RCV-001222:8=FIX.4.2|9=299|35=8|56=TORAUAT|115=REDITORART|128=TESTGROUP|116=ALGO|129=rranjan|34=1222|49=AUTEXTST|52=20230626-18:29:55|37=12538853|11=V9vqBJtmJtwBAAAB|76=SCMS|17=9058621|20=0|150=0|39=0|1=TESTER1|55=IBM|54=1|38=505|40=1|15=USD|59=0|32=0|31=0.00000000|151=505|14=0|6=0.00000000|60=20230626-18:29:56|58=New order|10=029|
20230627-03:30:31.595 SNT-001083:8=FIX.4.2|9=460|35=G|34=1083|49=TORAUAT|52=20230626-18:30:31.595|56=AUTEXTST|115=TESTGROUP|116=rranjan|128=REDITORART|129=ALGO|1=TESTER1|11=V9vqBGSZkFkAAZR8|15=USD|21=1|22=5|38=505|40=1|41=V9vqBJtmJtwBAAAB|47=A|48=IBM.N|54=1|55=IBM|58=REDI7|59=0|60=20230626-18:30:31|76=SCMS|167=CS|2600=SCMS|2607=Rajnish Ranjan|2610=ALGO|2612=TESTGROUP|7212=Y|7213=NA|9301=402|9311=20230626-19:29:11|9315=N|9316=20230626-20:29:27|9320=3.33|9324=1.11|9325=2.22|9330=2|9331=2|9332=2|14002=TORA|10=215|
20230627-03:30:31.918 RCV-001223:8=FIX.4.2|9=325|35=8|56=TORAUAT|115=REDITORART|128=TESTGROUP|116=ALGO|129=rranjan|34=1223|49=AUTEXTST|52=20230626-18:30:30|37=12538853|11=V9vqBGSZkFkAAZR8|41=V9vqBJtmJtwBAAAB|76=SCMS|17=9058622|20=0|150=E|39=E|1=TESTER1|55=IBM|54=1|38=505|40=1|15=USD|59=0|32=0|31=0.00000000|151=505|14=0|6=0.00000000|60=20230626-18:30:31|58=Replace pending|10=077|
20230627-03:30:31.957 RCV-001224:8=FIX.4.2|9=318|35=8|56=TORAUAT|115=REDITORART|128=TESTGROUP|116=ALGO|129=rranjan|34=1224|49=AUTEXTST|52=20230626-18:30:30|37=12538855|11=V9vqBGSZkFkAAZR8|41=V9vqBJtmJtwBAAAB|76=SCMS|17=9058623|20=0|150=5|39=5|1=TESTER1|55=IBM|54=1|38=505|40=1|15=USD|59=0|32=0|31=0.00000000|151=505|14=0|6=0.00000000|60=20230626-18:30:31|58=Replaced|10=146|
20230627-03:30:34.292 SNT-001084:8=FIX.4.2|9=433|35=F|34=1084|49=TORAUAT|52=20230626-18:30:34.292|56=AUTEXTST|115=TESTGROUP|116=rranjan|128=REDITORART|129=ALGO|1=TESTER1|11=V9vqBGSZkFkAAZTc|22=5|38=505|41=V9vqBGSZkFkAAZR8|48=IBM.N|54=1|55=IBM|58=REDI7|60=20230626-18:30:34|76=SCMS|167=CS|2600=SCMS|2607=Rajnish Ranjan|2610=ALGO|2612=TESTGROUP|7212=Y|7213=NA|9301=402|9311=20230626-19:29:11|9315=N|9316=20230626-20:29:27|9320=3.33|9324=1.11|9325=2.22|9330=2|9331=2|9332=2|14002=TORA|10=216|
20230627-03:30:34.631 RCV-001225:8=FIX.4.2|9=338|35=8|56=TORAUAT|115=REDITORART|128=TESTGROUP|116=ALGO|129=rranjan|34=1225|49=AUTEXTST|52=20230626-18:30:33|37=12538857|11=V9vqBGSZkFkAAZTc|41=V9vqBGSZkFkAAZR8|76=SCMS|17=9058624|20=0|150=6|39=6|1=TESTER1|55=IBM|48=IBM.N|22=5|54=1|38=505|40=1|15=USD|59=0|32=0|31=0.00000000|151=505|14=0|6=0.00000000|60=20230626-18:30:34|58=Cancel pending|10=156|
20230627-03:30:34.653 RCV-001226:8=FIX.4.2|9=339|35=8|56=TORAUAT|115=REDITORART|128=TESTGROUP|116=ALGO|129=rranjan|34=1226|49=AUTEXTST|52=20230626-18:30:33|37=12538855|11=V9vqBGSZkFkAAZTc|41=V9vqBGSZkFkAAZR8|76=SCMS|17=9058625|20=0|150=4|39=4|1=TESTER1|55=IBM|48=IBM.N|22=5|54=1|38=505|40=1|15=USD|59=0|32=0|31=0.00000000|151=0|14=0|6=0.00000000|60=20230626-18:30:34|58=Cancelled by User|10=025|
20230627-03:31:30.339 SNT-001085:8=FIX.4.2|9=437|35=D|34=1085|49=TORAUAT|52=20230626-18:31:30.338|56=AUTEXTST|115=TESTGROUP|116=rranjan|128=REDITORART|129=ALGO|1=TESTER1|11=V9vqBJtmJn4BAAAB|15=USD|21=1|22=5|38=505|40=1|47=A|48=IBM.N|54=1|55=IBM|58=TORA7|59=0|60=20230626-18:31:30|76=SCMS|167=CS|2600=SCMS|2607=Rajnish Ranjan|2610=ALGO|2612=TESTGROUP|7212=N|7213=IA|9301=402|9311=20230626-19:30:47|9315=Y|9316=20230626-20:30:46|9320=0.0|9324=0.0|9325=0.0|9330=1|9331=1|9332=1|14002=TORA|10=029|
20230627-03:31:30.669 RCV-001227:8=FIX.4.2|9=299|35=8|56=TORAUAT|115=REDITORART|128=TESTGROUP|116=ALGO|129=rranjan|34=1227|49=AUTEXTST|52=20230626-18:31:29|37=12538858|11=V9vqBJtmJn4BAAAB|76=SCMS|17=9058626|20=0|150=0|39=0|1=TESTER1|55=IBM|54=1|38=505|40=1|15=USD|59=0|32=0|31=0.00000000|151=505|14=0|6=0.00000000|60=20230626-18:31:30|58=New order|10=206|
20230627-03:32:30.808 RCV-001228:8=FIX.4.2|9=57|35=0|34=1228|49=AUTEXTST|56=TORAUAT|52=20230626-18:32:29|10=084|
20230627-03:32:30.809 SNT-001086:8=FIX.4.2|9=61|35=0|34=1086|49=TORAUAT|52=20230626-18:32:30.809|56=AUTEXTST|10=024|
20230627-03:32:41.217 SNT-001087:8=FIX.4.2|9=460|35=G|34=1087|49=TORAUAT|52=20230626-18:32:41.217|56=AUTEXTST|115=TESTGROUP|116=rranjan|128=REDITORART|129=ALGO|1=TESTER1|11=V9vqBGSZkFkAAZYm|15=USD|21=1|22=5|38=505|40=1|41=V9vqBJtmJn4BAAAB|47=A|48=IBM.N|54=1|55=IBM|58=TORA7|59=0|60=20230626-18:32:41|76=SCMS|167=CS|2600=SCMS|2607=Rajnish Ranjan|2610=ALGO|2612=TESTGROUP|7212=Y|7213=NA|9301=402|9311=20230626-19:30:47|9315=N|9316=20230626-20:30:46|9320=3.33|9324=1.11|9325=2.22|9330=2|9331=2|9332=2|14002=TORA|10=215|
20230627-03:32:41.560 RCV-001229:8=FIX.4.2|9=325|35=8|56=TORAUAT|115=REDITORART|128=TESTGROUP|116=ALGO|129=rranjan|34=1229|49=AUTEXTST|52=20230626-18:32:40|37=12538858|11=V9vqBGSZkFkAAZYm|41=V9vqBJtmJn4BAAAB|76=SCMS|17=9058627|20=0|150=E|39=E|1=TESTER1|55=IBM|54=1|38=505|40=1|15=USD|59=0|32=0|31=0.00000000|151=505|14=0|6=0.00000000|60=20230626-18:32:41|58=Replace pending|10=086|
20230627-03:32:41.576 RCV-001230:8=FIX.4.2|9=318|35=8|56=TORAUAT|115=REDITORART|128=TESTGROUP|116=ALGO|129=rranjan|34=1230|49=AUTEXTST|52=20230626-18:32:40|37=12538860|11=V9vqBGSZkFkAAZYm|41=V9vqBJtmJn4BAAAB|76=SCMS|17=9058628|20=0|150=5|39=5|1=TESTER1|55=IBM|54=1|38=505|40=1|15=USD|59=0|32=0|31=0.00000000|151=505|14=0|6=0.00000000|60=20230626-18:32:41|58=Replaced|10=137|
20230627-03:32:48.403 SNT-001088:8=FIX.4.2|9=433|35=F|34=1088|49=TORAUAT|52=20230626-18:32:48.403|56=AUTEXTST|115=TESTGROUP|116=rranjan|128=REDITORART|129=ALGO|1=TESTER1|11=V9vqBGSZkFkAAZaG|22=5|38=505|41=V9vqBGSZkFkAAZYm|48=IBM.N|54=1|55=IBM|58=TORA7|60=20230626-18:32:48|76=SCMS|167=CS|2600=SCMS|2607=Rajnish Ranjan|2610=ALGO|2612=TESTGROUP|7212=Y|7213=NA|9301=402|9311=20230626-19:30:47|9315=N|9316=20230626-20:30:46|9320=3.33|9324=1.11|9325=2.22|9330=2|9331=2|9332=2|14002=TORA|10=029|
20230627-03:32:48.729 RCV-001231:8=FIX.4.2|9=338|35=8|56=TORAUAT|115=REDITORART|128=TESTGROUP|116=ALGO|129=rranjan|34=1231|49=AUTEXTST|52=20230626-18:32:47|37=12538862|11=V9vqBGSZkFkAAZaG|41=V9vqBGSZkFkAAZYm|76=SCMS|17=9058629|20=0|150=6|39=6|1=TESTER1|55=IBM|48=IBM.N|22=5|54=1|38=505|40=1|15=USD|59=0|32=0|31=0.00000000|151=505|14=0|6=0.00000000|60=20230626-18:32:48|58=Cancel pending|10=213|
20230627-03:32:48.752 RCV-001232:8=FIX.4.2|9=339|35=8|56=TORAUAT|115=REDITORART|128=TESTGROUP|116=ALGO|129=rranjan|34=1232|49=AUTEXTST|52=20230626-18:32:47|37=12538860|11=V9vqBGSZkFkAAZaG|41=V9vqBGSZkFkAAZYm|76=SCMS|17=9058630|20=0|150=4|39=4|1=TESTER1|55=IBM|48=IBM.N|22=5|54=1|38=505|40=1|15=USD|59=0|32=0|31=0.00000000|151=0|14=0|6=0.00000000|60=20230626-18:32:48|58=Cancelled by User|10=073|
20230627-03:33:35.158 SNT-001089:8=FIX.4.2|9=429|35=D|34=1089|49=TORAUAT|52=20230626-18:33:35.157|56=AUTEXTST|115=TESTGROUP|116=rranjan|128=REDITORART|129=ALGO|1=TESTER1|11=V9vqBJtmJgIBAAAB|15=USD|21=1|22=5|38=505|40=1|47=A|48=IBM.N|54=1|55=IBM|58=REDI8|59=0|60=20230626-18:33:35|76=SCMS|167=CS|2600=SCMS|2607=Rajnish Ranjan|2610=ALGO|2612=TESTGROUP|7212=N|7213=IA|9110=0|9301=80|9311=20230626-19:33:07|9316=20230626-20:33:08|9322=0.0|9326=0|9328=100|9329=100|9386=1|14002=TORA|10=172|
20230627-03:33:35.479 RCV-001233:8=FIX.4.2|9=299|35=8|56=TORAUAT|115=REDITORART|128=TESTGROUP|116=ALGO|129=rranjan|34=1233|49=AUTEXTST|52=20230626-18:33:34|37=12538863|11=V9vqBJtmJgIBAAAB|76=SCMS|17=9058631|20=0|150=0|39=0|1=TESTER1|55=IBM|54=1|38=505|40=1|15=USD|59=0|32=0|31=0.00000000|151=505|14=0|6=0.00000000|60=20230626-18:33:35|58=New order|10=214|
20230627-03:34:06.911 SNT-001090:8=FIX.4.2|9=450|35=G|34=1090|49=TORAUAT|52=20230626-18:34:06.911|56=AUTEXTST|115=TESTGROUP|116=rranjan|128=REDITORART|129=ALGO|1=TESTER1|11=V9vqBGSZkFkAAZeJ|15=USD|21=1|22=5|38=505|40=1|41=V9vqBJtmJgIBAAAB|47=A|48=IBM.N|54=1|55=IBM|58=REDI8|59=0|60=20230626-18:34:06|76=SCMS|167=CS|2600=SCMS|2607=Rajnish Ranjan|2610=ALGO|2612=TESTGROUP|7212=Y|7213=NA|9110=1|9301=80|9311=20230626-19:33:07|9316=20230626-20:33:08|9322=1.17|9326=1|9328=200|9329=101|9386=2|14002=TORA|10=225|
20230627-03:34:07.243 RCV-001234:8=FIX.4.2|9=325|35=8|56=TORAUAT|115=REDITORART|128=TESTGROUP|116=ALGO|129=rranjan|34=1234|49=AUTEXTST|52=20230626-18:34:05|37=12538863|11=V9vqBGSZkFkAAZeJ|41=V9vqBJtmJgIBAAAB|76=SCMS|17=9058632|20=0|150=E|39=E|1=TESTER1|55=IBM|54=1|38=505|40=1|15=USD|59=0|32=0|31=0.00000000|151=505|14=0|6=0.00000000|60=20230626-18:34:07|58=Replace pending|10=072|
20230627-03:34:07.256 RCV-001235:8=FIX.4.2|9=318|35=8|56=TORAUAT|115=REDITORART|128=TESTGROUP|116=ALGO|129=rranjan|34=1235|49=AUTEXTST|52=20230626-18:34:05|37=12538865|11=V9vqBGSZkFkAAZeJ|41=V9vqBJtmJgIBAAAB|76=SCMS|17=9058633|20=0|150=5|39=5|1=TESTER1|55=IBM|54=1|38=505|40=1|15=USD|59=0|32=0|31=0.00000000|151=505|14=0|6=0.00000000|60=20230626-18:34:07|58=Replaced|10=141|
20230627-03:34:10.057 SNT-001091:8=FIX.4.2|9=423|35=F|34=1091|49=TORAUAT|52=20230626-18:34:10.057|56=AUTEXTST|115=TESTGROUP|116=rranjan|128=REDITORART|129=ALGO|1=TESTER1|11=V9vqBGSZkFkAAZfp|22=5|38=505|41=V9vqBGSZkFkAAZeJ|48=IBM.N|54=1|55=IBM|58=REDI8|60=20230626-18:34:10|76=SCMS|167=CS|2600=SCMS|2607=Rajnish Ranjan|2610=ALGO|2612=TESTGROUP|7212=Y|7213=NA|9110=1|9301=80|9311=20230626-19:33:07|9316=20230626-20:33:08|9322=1.17|9326=1|9328=200|9329=101|9386=2|14002=TORA|10=051|
20230627-03:34:10.388 RCV-001236:8=FIX.4.2|9=338|35=8|56=TORAUAT|115=REDITORART|128=TESTGROUP|116=ALGO|129=rranjan|34=1236|49=AUTEXTST|52=20230626-18:34:09|37=12538867|11=V9vqBGSZkFkAAZfp|41=V9vqBGSZkFkAAZeJ|76=SCMS|17=9058634|20=0|150=6|39=6|1=TESTER1|55=IBM|48=IBM.N|22=5|54=1|38=505|40=1|15=USD|59=0|32=0|31=0.00000000|151=505|14=0|6=0.00000000|60=20230626-18:34:10|58=Cancel pending|10=233|
20230627-03:34:10.418 RCV-001237:8=FIX.4.2|9=339|35=8|56=TORAUAT|115=REDITORART|128=TESTGROUP|116=ALGO|129=rranjan|34=1237|49=AUTEXTST|52=20230626-18:34:09|37=12538865|11=V9vqBGSZkFkAAZfp|41=V9vqBGSZkFkAAZeJ|76=SCMS|17=9058635|20=0|150=4|39=4|1=TESTER1|55=IBM|48=IBM.N|22=5|54=1|38=505|40=1|15=USD|59=0|32=0|31=0.00000000|151=0|14=0|6=0.00000000|60=20230626-18:34:10|58=Cancelled by User|10=102|
20230627-03:34:51.934 SNT-001092:8=FIX.4.2|9=429|35=D|34=1092|49=TORAUAT|52=20230626-18:34:51.934|56=AUTEXTST|115=TESTGROUP|116=rranjan|128=REDITORART|129=ALGO|1=TESTER1|11=V9vqBJtmJbUBAAAB|15=USD|21=1|22=5|38=505|40=1|47=A|48=IBM.N|54=1|55=IBM|58=TORA8|59=0|60=20230626-18:34:51|76=SCMS|167=CS|2600=SCMS|2607=Rajnish Ranjan|2610=ALGO|2612=TESTGROUP|7212=N|7213=IA|9110=1|9301=80|9311=20230626-19:34:18|9316=20230626-20:34:18|9322=0.0|9326=0|9328=100|9329=100|9386=1|14002=TORA|10=198|
20230627-03:34:52.253 RCV-001238:8=FIX.4.2|9=299|35=8|56=TORAUAT|115=REDITORART|128=TESTGROUP|116=ALGO|129=rranjan|34=1238|49=AUTEXTST|52=20230626-18:34:50|37=12538868|11=V9vqBJtmJbUBAAAB|76=SCMS|17=9058636|20=0|150=0|39=0|1=TESTER1|55=IBM|54=1|38=505|40=1|15=USD|59=0|32=0|31=0.00000000|151=505|14=0|6=0.00000000|60=20230626-18:34:52|58=New order|10=235|
20230627-03:35:27.979 SNT-001093:8=FIX.4.2|9=450|35=G|34=1093|49=TORAUAT|52=20230626-18:35:27.979|56=AUTEXTST|115=TESTGROUP|116=rranjan|128=REDITORART|129=ALGO|1=TESTER1|11=V9vqBGSZkFkAAZjU|15=USD|21=1|22=5|38=505|40=1|41=V9vqBJtmJbUBAAAB|47=A|48=IBM.N|54=1|55=IBM|58=TORA8|59=0|60=20230626-18:35:27|76=SCMS|167=CS|2600=SCMS|2607=Rajnish Ranjan|2610=ALGO|2612=TESTGROUP|7212=Y|7213=NA|9110=2|9301=80|9311=20230626-19:34:18|9316=20230626-20:34:18|9322=1.12|9326=1|9328=200|9329=101|9386=2|14002=TORA|10=036|
20230627-03:35:28.309 RCV-001239:8=FIX.4.2|9=325|35=8|56=TORAUAT|115=REDITORART|128=TESTGROUP|116=ALGO|129=rranjan|34=1239|49=AUTEXTST|52=20230626-18:35:26|37=12538868|11=V9vqBGSZkFkAAZjU|41=V9vqBJtmJbUBAAAB|76=SCMS|17=9058637|20=0|150=E|39=E|1=TESTER1|55=IBM|54=1|38=505|40=1|15=USD|59=0|32=0|31=0.00000000|151=505|14=0|6=0.00000000|60=20230626-18:35:28|58=Replace pending|10=118|
20230627-03:35:28.341 RCV-001240:8=FIX.4.2|9=318|35=8|56=TORAUAT|115=REDITORART|128=TESTGROUP|116=ALGO|129=rranjan|34=1240|49=AUTEXTST|52=20230626-18:35:27|37=12538870|11=V9vqBGSZkFkAAZjU|41=V9vqBJtmJbUBAAAB|76=SCMS|17=9058638|20=0|150=5|39=5|1=TESTER1|55=IBM|54=1|38=505|40=1|15=USD|59=0|32=0|31=0.00000000|151=505|14=0|6=0.00000000|60=20230626-18:35:28|58=Replaced|10=170|
20230627-03:35:32.138 SNT-001094:8=FIX.4.2|9=423|35=F|34=1094|49=TORAUAT|52=20230626-18:35:32.138|56=AUTEXTST|115=TESTGROUP|116=rranjan|128=REDITORART|129=ALGO|1=TESTER1|11=V9vqBGSZkFkAAZk4|22=5|38=505|41=V9vqBGSZkFkAAZjU|48=IBM.N|54=1|55=IBM|58=TORA8|60=20230626-18:35:32|76=SCMS|167=CS|2600=SCMS|2607=Rajnish Ranjan|2610=ALGO|2612=TESTGROUP|7212=Y|7213=NA|9110=2|9301=80|9311=20230626-19:34:18|9316=20230626-20:34:18|9322=1.12|9326=1|9328=200|9329=101|9386=2|14002=TORA|10=044|
20230627-03:35:32.467 RCV-001241:8=FIX.4.2|9=338|35=8|56=TORAUAT|115=REDITORART|128=TESTGROUP|116=ALGO|129=rranjan|34=1241|49=AUTEXTST|52=20230626-18:35:31|37=12538872|11=V9vqBGSZkFkAAZk4|41=V9vqBGSZkFkAAZjU|76=SCMS|17=9058639|20=0|150=6|39=6|1=TESTER1|55=IBM|48=IBM.N|22=5|54=1|38=505|40=1|15=USD|59=0|32=0|31=0.00000000|151=505|14=0|6=0.00000000|60=20230626-18:35:32|58=Cancel pending|10=192|
20230627-03:35:32.491 RCV-001242:8=FIX.4.2|9=339|35=8|56=TORAUAT|115=REDITORART|128=TESTGROUP|116=ALGO|129=rranjan|34=1242|49=AUTEXTST|52=20230626-18:35:31|37=12538870|11=V9vqBGSZkFkAAZk4|41=V9vqBGSZkFkAAZjU|76=SCMS|17=9058640|20=0|150=4|39=4|1=TESTER1|55=IBM|48=IBM.N|22=5|54=1|38=505|40=1|15=USD|59=0|32=0|31=0.00000000|151=0|14=0|6=0.00000000|60=20230626-18:35:32|58=Cancelled by User|10=052|
20230627-03:36:05.231 SNT-001095:8=FIX.4.2|9=331|35=D|34=1095|49=TORAUAT|52=20230626-18:36:05.231|56=AUTEXTST|115=TESTGROUP|116=ahasan|128=REDITORART|129=ALGO|1=TESTER1|11=WNGVEJtmJWsBAAAB|15=USD|21=1|22=5|38=502|40=2|44=129.43|47=A|48=IBM.N|54=1|55=IBM|58=WSA_ATDL|59=0|60=20230626-18:36:05|76=VNDT|167=CS|2600=VNDT|2607=Ahmed Hasan|2610=ALGO|2612=TESTGROUP|6005=SMTA|14002=TORA|10=219|
20230627-03:36:05.579 RCV-001243:8=FIX.4.2|9=305|35=8|56=TORAUAT|115=REDITORART|128=TESTGROUP|129=ahasan|34=1243|49=AUTEXTST|52=20230626-18:36:04|37=12538873|11=WNGVEJtmJWsBAAAB|76=VNDT|17=9058641|20=0|150=0|39=0|1=TESTER1|55=IBM|54=1|38=502|40=2|44=129.43000000|15=USD|59=0|32=0|31=0.00000000|151=502|14=0|6=0.00000000|60=20230626-18:36:05|58=New order|10=053|
